:100000000C9451000C949B080C949B080C949B0836
:100010000C949B080C949B080C949B080C949B08D4
:100020000C949B080C949B080C949B080C949B08C4
:100030000C949B080C949B080C949B080C949B08B4
:100040000C949B080C949B080C949B080C949B08A4
:100050000C949B080C949B080C949B080C949B0894
:100060000C949B080C949B080C949B080C949B0884
:100070000C949B080C949B080C949B080C949B0874
:100080000C949B080C949B080C949B080C949B0864
:1000900060006002806002603700114460376039A0
:1000A0008000809101108F7C8060806880930110B7
:1000B00011241FBECFEFCDBFDFE7DEBFE0E9F0E0E8
:1000C00040E017C0B591A59135912591059107FDA7
:1000D0000CC095918591EF01F92FE82F05900D92B5
:1000E000A217B307D9F7FE0104C01D92A217B307E8
:1000F000E1F7E13AF40731F70E94F2040C94540856
:04010000F894FFCFA1
:100104000A55534152542044726976657220496EEF
:10011400697469616C697A6174696F6E205375637F
:1001240063657373210041444320496E69746961B6
:100134006C6973656420616E6420656E61626C65D0
:1001440064210057696E646F7720436F6E6469742D
:10015400696F6E73205361746973666965643A20CC
:1001640025640A0057696E646F7720436F6E646973
:1001740074696F6E73204E4F5420536174697366B3
:090184006965643A2025640A0053
:10018E00AEE0B0E0EDECF0E00C94E8074C016B0152
:10019E0019821A828FEF9FEF8B839C831D821E82A2
:1001AE004F83588729873A87A12CB12CD6016D90A1
:1001BE007C90F301EA0DFB1D808181110FC0D601E9
:1001CE00ED93FC938081853209F0D3C13F01BFEFDF
:1001DE006B1A7B0AF6016082718219C0853279F33F
:1001EE00B401082E000C990B0E94AF054FEFA41A14
:1001FE00B40ADCCF8C32ACF08D32F9F489819A815D
:10020E00816089839A833196D601ED93FC93D60152
:10021E00ED91FC9180818B3269F789819A8184609E
:10022E00F0CF803221F489819A818860EACF8332BF
:10023E0051F489819A818061E4CF803321F48981E0
:10024E009A818260DECFB701C6010E94E3068D83DC
:10025E009E8397FF0BC029813A81B1E02B2729831A
:10026E003A839195819591098D839E8389819A8197
:10027E0080FF03C08D7F89839A83D601ED91FC9117
:10028E00119780818E3249F43196ED93FC93B7012C
:10029E00C6010E94E3068B839C83C6010E94A807B9
:1002AE00582ED601ED91FC918081082E000C990BF1
:1002BE000E947908893609F443C084F4833609F420
:1002CE0002C134F4853209F427C18136E1F030C120
:1002DE008436B1F188360CF4D9C02AC1803709F4BE
:1002EE009AC03CF48E3609F4BCC08F3609F461C056
:1002FE001FC1853709F440C0883709F476C08337AB
:10030E0009F016C1F3C0652D70E0A701CE010B9662
:10031E000E940000892B09F426C1D601ED91FC91B3
:10032E001197CF0101968D939C932081AE01455F6D
:10033E005F4FBE016F5F7F4FC4010E94000010C16E
:10034E00652D70E0970141E050E0CE010B960E94C2
:10035E002504892B09F407C1F6018081918101964C
:10036E0080839183AE01455F5F4FBE016F5F7F4F0C
:10037E00C4010E94B303F4C0652D70E0970140E004
:10038E0050E0CE010B960E942504892B09F4EBC098
:10039E00D6018D919C91119701968D939C93AE01F0
:1003AE00455F5F4FBE016F5F7F4FC4010E94F8052E
:1003BE00D7C0652D70E0970140E050E0CE010B965E
:1003CE000E942504892B09F4CEC0F601808191810B
:1003DE00019680839183AE01455F5F4FBE016F5FD3
:1003EE007F4FC4010E945605BBC0652D70E097017A
:1003FE0040E050E0CE010B960E942504892B09F4B3
:10040E00B2C0D601ED91FC911197CF0101968D935B
:10041E009C9320811CC0970140E050E060EF70E09B
:10042E00CE010B960E942504892B09F49CC0F6017F
:10043E00808191810196808391838B859C85892B08
:10044E0029F420E030E04FE250E684C028E7AE0108
:10045E00455F5F4FBE016F5F7F4FC4010E94C502B3
:10046E007FC0A501400F511F652D70E09701CE0191
:10047E000B960E940000892B09F475C0D6018D9150
:10048E009C91119701968D939C9373C0652D70E08E
:10049E00A701CE010B960E940000892B09F463C0C0
:1004AE00D601ED91FC911197CF0101968D939C93FE
:1004BE002081AE01455F5F4FBE016F5F7F4FC4016C
:1004CE000E9400004DC0B0E85B124DC0F601808165
:1004DE009181019680839183D701ED91FC911197C3
:1004EE00CF0102968D939C93808120C0B0E85B1261
:1004FE003AC0F60180819181019680839183D70164
:10050E00ED91FC911197CF0102968D939C934081B2
:10051E00518120E030E01EC0B0E85B1224C0F6012D
:10052E00208131812F5F3F4F208331838B870DC018
:10053E0085E28B87D6016D927C9219821A821D827A
:10054E001E828FEF9FEF8B839C8321E030E0AE0104
:10055E00455F5F4FBE016F5F7F4FC4010E94110761
:10056E008A0D9B1D07C0F6018081918101968083C3
:0C057E009183C5012E96EFE00C9431082B
:10058A00AFE0B0E0EBECF2E00C94E5071C016B0184
:10059A0049835A832B83FB018281938184809580CE
:1005AA0000811181A680B78097FD02C00D7F02C02D
:1005BA0081E090E0E981FA81408051806280738015
:1005CA009801207133272C833D83740104FF08C0EE
:1005DA00411451046104710419F032E0E31AF1087C
:1005EA00F801E870FF27EE83FF8303FF03C0F1E001
:1005FA00EF1AF108F6010084F185E02D3197EE87B4
:10060A00FF87EA0DFB1D10829C012E193F092887DE
:10061A003987C801827099278A879B87EB818E2F39
:10062A00EE0F990B9C01215431092C873D872E85A9
:10063A003F852230310530F48C819D81892B09F068
:10064A0042C05CC0411451046104710461F18E8599
:10065A009F8501978E879F87C2018F7099278A305D
:10066A00910514F4C09602C0895A9F4FEC85FD8506
:10067A007A9748F49C012062215631092A313105C2
:10068A0010F40E946808EE85FF85EA0DFB1D808341
:10069A00F1E0EF1AF10884E076946794579447944E
:1006AA008A95D1F7C4CF888599858E0D9F1D181616
:1006BA0019066CF21E141F040CF0BECFEA85FB85E6
:1006CA00EF2B29F6B9CFE981FA8180819181A28144
:1006DA00B381892B8A2B8B2B89F0EE85FF85EA0D56
:1006EA00FB1D31972B8120838E859F8502978E87EC
:1006FA009F87FC01EA0DFB1D80E38083EE81FF8169
:10070A00EF2B59F02E853F85215031092E873F87DF
:10071A00F901EA0DFB1D80E28083F60140855185CF
:10072A00415051092E853F85421B530BB9016A0D71
:10073A007B1D9401C1010E947B069C01F10180810D
:10074A00918190FF06C0F6018281938182179307F7
:0C075A000CF4C9012F96E2E10C942E086B
:10076600A2E0B0E0E9EBF3E00C94E5073C016B0195
:10077600FB0122813381A480B580808191818983A8
:100786009A8386809780FA01208031804280538048
:10079600B201A10157FE07C044275527BA014219E5
:1007A60053096409750937FD03C08D7F89839A83D0
:1007B600950157FC05C0898182FD02C083FF02C0F6
:1007C60021503109CE0101967C010AE010E0C601F4
:1007D6000E948D0457FC03C0298122FF0AC001979D
:1007E600F401E80FF91F57FC02C02BE209C02DE205
:1007F60007C023FF06C00197F401E80FF91F20E2A6
:10080600208309811A81F60140855185415051099D
:10081600481B590BB401680F791F9501C3010E944B
:100826007B069C01F3018081918190FF06C0F60151
:1008360082819381821793070CF4C9012296E2E123
:040846000C942E08D8
:10084A00CF93DF93DC01F90168387105F1F05CF4AC
:10085A006138710561F164387105A1F1603871057B
:10086A0009F051C02FC0603C710509F441C0603FD6
:10087A007105F1F1603A710509F045C0C081D18175
:10088A00CE0102968083918325C0C081D181CE0199
:10089A00029680839183452B39F04881042E000CFF
:1008AA00550B660B770B1CC0488150E029C0C081EC
:1008BA00D181CE01049680839183488159816A81CE
:1008CA007B810EC0C081D181CE0102968083918343
:1008DA00452BA1F048815981052E000C660B770B38
:1008EA004D935D936D937C93139781E090E00DC0D7
:1008FA00C081D181CE01029680839183488159813A
:10090A0060E070E0EDCF80E090E0DF91CF91089554
:10091A00A0E0B0E0E3E9F4E00C94E707DC01280189
:10092A001696AD90BC901797F70180819181129627
:10093A00ED91FC9113971896CD91DC911997219717
:10094A00F7FF02C0E1E0F0E0CA0DDB1D1882690181
:10095A00A1E0B0E08F01021B130B4C01F2E08F22E1
:10096A009924052C000C66087708CE018A199B0980
:10097A00CA15DB0519F1411551056105710589F0A3
:10098A00CB01BA01A30192010E948607CA01A62FD0
:10099A00B72F605D6A9341E0C41AD108A901BC016E
:1009AA00E4CF98012C0D3D1D121613064CF31C14AE
:1009BA001D0434F48114910419F702C080E090E018
:1009CA00AB2B31F4F701208131812F7E20833183D3
:0A09DA00CDB7DEB7E0E10C94300861
:1009E40001E020E040E060E080E00E94620723E054
:1009F40040E060E080E00E943B0784E091E80E94D0
:100A04005F0885E88093B000E0E0F6E080E880834A
:100A140011821282138282E0858382E1808788EECC
:100A240093E0828B938B88EB9BE0848B958B83E0A4
:100A340084830E9481088AE291E80E945F080F2E55
:100A4400E12CF6E0FF2EF02D08E611E8C7E4D1E82A
:100A54000E9487080E9497088823E1F30E948D086A
:100A6400882371F0F701808991899F938F93DF9395
:100A7400CF930E94FE070F900F900F900F900DC020
:100A8400F701808991899F938F931F930F930E94FD
:100A9400FE070F900F900F900F9087EA91E6019751
:080AA400F1F700C00000D4CFFF
:100AAC00A2E0B0E0ECE5F5E00C94E9074C016B0139
:100ABC00FB012281338164807580808191818983DF
:100ACC009A83A680B78037FD03C08D7F89839A8374
:100ADC00FA014081518162817381CE0101967C01C2
:100AEC0008E010E09301C6010E948D04298124FFC7
:100AFC0006C00197F501E80FF91F20E32083298137
:100B0C0023FF06C00197F501E80FF91F20E22083AF
:100B1C0009811A81F6014085518541505109481BC4
:100B2C00590BB501680F791F9301C4010E947B0614
:100B3C009C01F4018081918190FF06C0F6018281B5
:100B4C009381821793070CF4C9012296EEE00C9462
:020B5C0032085D
:100B5E000F931F93CF93DF93DB012D913C91119750
:100B6E0030FF25C016964D915C91179714962D91D6
:100B7E003C9115974217530778F41296ED91FC911C
:100B8E001397808312962D913C9113972F5F3F4FB1
:100B9E0012962D933C93139716962D913C91179781
:100BAE002F5F3F4F16962D933C93179715C01C96AB
:100BBE00ED91FC911D97309719F48FEF9FEF0CC0BC
:100BCE008B01EC010995892BC1F7F801868197817C
:100BDE00019686839783CE01DF91CF911F910F915E
:020BEE00089568
:100BF000A2E0B0E0EEEFF5E00C94E9075C016B01D8
:100C0000FB01228133818480958080819181898359
:100C10009A836680778037FD03C08D7F89839A83AE
:100C2000FA014081518162817381CE0101967C017C
:100C30000AE010E09401C6010E948D0409811A8126
:100C4000F6014085518541505109481B590BB301AC
:100C5000680F791F9401C5010E947B069C01F50174
:100C60008081918190FF06C0F60182819381821775
:0E0C700093070CF4C9012296EEE00C943208B2
:100C7E00A2E8B0E0E5E4F6E00C94EB075C014A0173
:100C8E00CF57DF4F68837983C158D040C12CD12C08
:100C9E00CF57DF4FE881F981C158D040808188233A
:100CAE00E9F07401860120E830E0AE014F5F5F4F3E
:100CBE00BE016F577F4FC5010E94C7008C0D9D1D51
:100CCE008C159D054CF48FE490E08093006090931A
:100CDE0001608FEF9FEF03C06C01DACFC601CE57D4
:080CEE00DF4FECE00C94340828
:100CF600A0E0B0E0E1E8F6E00C94EB076C015B01E4
:100D06007A01E901480181E08822992400FD03C0A7
:100D16004217530750F0A701B501C6010E94C80744
:100D2600EC16FD0610F0C70117C08E010E191F093B
:100D36000115110541F0B60180E290E00E94AF0571
:100D460001501109F5CF8114910429F4A701B501C9
:100D5600C6010E94C807CE01CDB7DEB7ECE00C9401
:020D660034084F
:100D68000F931F93CF93DF938C010F5F1F4FFC01ED
:100D78008081FB0124853585232B11F0EB0109C007
:100D88008FEF9FEF17C00995892BD1F7F801819153
:100D98008F01EC85FD85BE018111F5CF8AE00995AB
:100DA80021E030E0892B11F420E030E088279927F2
:0E0DB800821B930BDF91CF911F910F91089535
:100DC600DC01ED91FC91119780818A3221F080E05F
:100DD60090E03AE00EC03196ED93FC93DB01ED9185
:100DE600FC911197CF0102968D939C9380819181FE
:100DF6000895ED91FC911197208120532A3068F4D3
:100E0600389FA001399F500D1124CA01820F911DF0
:0C0E16003196ED93FC931197ECCF0895FA
:100E2200A0E0B0E0E7E1F7E00C94ED077C01FB0104
:100E3200EA01C901A280B380C480D58000811181FA
:100E4200209711F4C8E2D0E6009719F4CE010E946F
:100E52004608B7FC04C0A816B90608F4C5019601F5
:100E6200AC01BE01C7010E947B06CDB7DEB7EAE046
:040E72000C9436089E
:100E7600E0E0F8E09781292B422B642B862B8783B1
:100E860081EA91E080879187A0E6B4E011968C9183
:100E96001197806111968C9383E08093E205868199
:100EA60080648683E0913560F091366088E190E653
:0E0EB6008083918384E690E00197F1F7089520
:100EC4000F9390E8099FF0011124E82B98ED94BF4B
:100ED400E0936000413039F4220F216030E094BF88
:100EE4002093610004C098ED94BF40936100811188
:100EF40004C088ED84BF60936800013019F480E871
:080F0400809301040F91089590
:100F0C00A1E21A2EAA1BBB1BFD010DC0AA1FBB1F01
:100F1C00EE1FFF1FA217B307E407F50720F0A21B73
:100F2C00B30BE40BF50B661F771F881F991F1A94E0
:100F3C0069F760957095809590959B01AC01BD010A
:040F4C00CF01089534
:100F5000CF93DF93EC0190E0E92FF0E0EE0FFF1F5D
:100F6000EE5FFF498081811102C081810EC0A8819E
:100F7000B9812C91821305C091811196A883B98300
:100F800001C09F5F9B3040F3892FDF91CF9108957F
:100F9000A0E0B0E0EEECF7E00C94EF076C01EB01A1
:100FA0008A017B01E40EF51ECE15DF0541F0899123
:100FB000B601082E000C990B0E94AF05F5CFC801B1
:0A0FC000CDB7DEB7E8E00C94380866
:100FCA002F923F924F925F926F927F928F929F924F
:100FDA00AF92BF92CF92DF92EF92FF920F931F933D
:100FEA00CF93DF93CDB7DEB7CA1BDB0BCDBFDEBF16
:020FFA00099458
:100FFC00A0E0B0E0E4E0F8E00C94F507AE014B5F44
:10100C005F4FFA0161917191AF01E0913560F09100
:10101C003660808191810E941608E2E00C943E08B3
:10102C00A2E0B0E0ECE1F8E00C94F3078C0149830A
:10103C005A83AE014F5F5F4F0E943F06F80120813B
:10104C0024FF02C08FEF9FEF2296E4E00C943C0843
:10105C002A88398848885F846E847D848C849B843C
:10106C00AA84B984C884DF80EE80FD800C811B814A
:10107C00AA81B981CE0FD11DCDBFDEBFED01089580
:10108C00FC01AF014F5F5F4F2081222311F0FA0169
:0C109C00F8CF9F01281B390BC9010895F3
:1010A800EC010E94A0080E949F08CE010E94A1089E
:0610B800CE010E949D081C
:1010BE00E0913560F0913660608171810E94B406D6
:0210CE00089583
:1010D0009C01215631092A31310510F48F75992769
:0210E000089571
:1010E200E0E0F8E0948195FFFDCF80930208089537
:1010F2009C01215431092A31310508F48062089596
:0C110200E0E0F6E08081816080830895C9
:0C110E00E0E0F6E08285816082870895B1
:0A111A0080910D06869581700895FE
:0A1124000E94710880E090E0089539
:08112E0080910D068170089507
:041136000C94000015
:04113A000E9480008F
:02113E00089512
:02114000089510
:0211420008950E
:1011440068076C094C836A9074A07AC00080688830
:0611540000846C820081A2
:10115A0003000000000000000000000092080000E8
:07116A00286E756C6C290072
:06117100286E696C2900E4
:021177003760DF
:00000001FF
