:100000000C943C000C9455000C9455000C94550035
:100010000C9455000C9455000C9455000C9455000C
:100020000C9455000C9455000C9455000C945500FC
:100030000C9455000C9455000C9455000C945500EC
:100040000C9455000C9455000C9455000C945500DC
:100050000C9455000C9455000C9455000C945500CC
:100060000C9455000C9455000C9455000C945500BC
:100070000C9455000C94550011241FBECFEFCDBF3A
:10008000DFE3DEBF0E9448000C944600F894FFCFE7
:10009000E7E2F4E080E880832AE23CE29AE0215043
:0A00A00030409040E1F70000F6CF79
:0400AA000C940000B2
:00000001FF
