:100000000C9454000C9492030C9492030C9492035D
:100010000C9492030C9492030C9492030C9492030C
:100020000C9492030C9492030C9492030C949203FC
:100030000C9492030C9492030C9492030C949203EC
:100040000C9492030C9492030C9492030C949203DC
:100050000C9492030C9492030C9492030C949203CC
:100060000C9492030C9492030C9492030C9443030B
:100070000C9492030C9492030C9492030C949203AC
:100080000C9492030C9492030C9409030C94920325
:10009000600060100007326010601280601260140F
:1000A0000007426014601880809101108F7C80608E
:1000B000806898ED94BF8093011011241FBECFEF8C
:1000C000CDBFDFE7DEBFE0E9F0E040E017C0B5916B
:1000D000A59135912591059107FD0CC095918591CC
:1000E000EF01F92FE82F05900D92A217B307D9F76A
:1000F000FE0104C01D92A217B307E1F7E83AF40726
:0E01000031F70E9487000C941603F894FFCF8D
:10010E00C0E00F2EF0E66F2E712CF02D0F2EFBE0BF
:10011E009F2EF02D0F2EF8EBBF2EF02DD3E00F2ECD
:10012E00F8EEDF2EF02D6894FF24F6F812E16894B5
:10013E00552457F8C23009F44BC030F4CC2361F08B
:10014E00C13009F46AC0F6CFC43009F489C008F48E
:10015E0071C0C53099F1EECF00E020E040E160E0E3
:10016E0081E00E949D020E94D5019F92BF92DF9373
:10017E00DF92DF93FF921F9382E08F931F921F9265
:10018E00812C6894AA24A5F8C12CE12C20E040E033
:10019E0060E085E00E9446012D2F40E060E080E0A7
:1001AE000E94340261E084E00E94E90278948DB7E7
:1001BE009EB70A968DBF9EBFC5E0BCCF88950E94A4
:1001CE008C03813009F0B6CF0E948F03C2E0B2CF0C
:1001DE000E944B030E945F039BE09A95F1F70E94E9
:1001EE006B030E9488038823E1F3E0E1F0E61082BE
:1001FE0011820E947603813011F4509211600E9498
:10020E007B03E0E1F0E680838181982B91830E944D
:10021E0065030E942103C1E08DCF00E020E040E0A5
:10022E006CE080E00E945B02F301858181FFFCCFD0
:10023E00CD2F80CF0E94BA020E94800384E090E00E
:10024E000E949E0162E070E080E190E60E94D7027B
:10025E000E9484030E9459030E943B03C4E06ACFAC
:10026E0000E020E040E160E081E00E949D02F301A9
:0E027E00858182FFFCCF0E945203C5E05BCF5A
:10028C008F92AF92BF92CF92EF92FF920F931F93E8
:10029C00CF93DF93CDB7DEB79A8930E8639FB00177
:1002AC001124862B8093B000EE0CEE0CCC0CEC28B9
:1002BC0080E1089F800111240E2930E2239F7001F8
:1002CC0011240E2980E8489FA0011124402BE0E066
:1002DC00F6E0408381828D85828330E2A39E5001BB
:1002EC0011248E85A82AA3828F858583203219F448
:1002FC00898980930906888980930806992369F077
:10030C00E0E0F6E02B893C89228B338B2D893E89EA
:10031C00248B358B948382E08487DF91CF911F915E
:10032C000F91FF90EF90CF90BF90AF908F9008956A
:10033C008F929F92AF92BF92CF92DF92EF92FF92E9
:10034C000F939C01A0E1B7E20E94FA0229E33EE878
:10035C0043EE58E30E94090200E20E948102822EC1
:10036C00932EA42EB52EB694A79497948794B694F6
:10037C00A794979487948114910439F080E090E0CD
:10038C000000019688159905D8F30F91FF90EF9016
:0E039C00DF90CF90BF90AF909F908F9008950C
:1003AA00CF93DF9320E034E08FEFD90111968C933D
:1003BA001197C0E4D4E0898360E674E0FB0181838D
:1003CA00E0EAF4E04FEB41839281906492839CE0EF
:1003DA001B969C939B87DB011B969C939387D90161
:1003EA001C968C938C87DB011C968C934487D901CD
:1003FA0015968C938D83DB0115968C9345838AE041
:08040A00868BDF91CF9108956C
:10041200E894DF93CF93FC01DB010E94FA027F9301
:100422006F93E9019A01AC01BF93AF933F932F936E
:10043200DF010E94FA0226F46C1B7D0B820B930BE8
:100442009E01EB01FC010E942A03AF91BF912F9103
:100452003F910E942A03BE01CF01F9012F913F91E2
:06046200CF91DF91089527
:10046800E0E0F8E09781292B422B642B862B8783C9
:100478008DE690E080879187A0E6B4E011968C9194
:100488001197806111968C9383E08093E2058681B1
:1004980080648683E0911260F091136080E090E6BA
:0E04A8008083918384EF91E00197F1F708952E
:1004B6000F9390E8099FF0011124E82B98ED94BF63
:1004C600E0936000413039F4220F216030E094BFA0
:1004D6002093610004C098ED94BF409361008111A0
:1004E60004C088ED84BF60936800013019F480E889
:0804F600809301040F910895A9
:1004FE0097FB10F8169400080F93083098F00850E8
:10050E00232F342F452F562F672F782F892F902D7D
:10051E00F4CF059497958795779567955795479559
:0C052E00379527950A95AAF70F910895BC
:10053A000F9398ED30E8039FF00111248E2B94BF9E
:10054A0080936000642B462F50E094BF4093610073
:10055A0027952227279594BF20937800013019F414
:0A056A0080E8809301040F910895CA
:100574001092E505E0E4F9E08081808382E28083E3
:100584001182A0E0B4E080ED11968C93119780E283
:1005940012968C93129780E815968C9382818064CE
:0A05A40082838081816080830895C6
:1005AE006115710571F0DC01680F791FE0E4F9E067
:1005BE009D91948393819923ECF78481A617B707B5
:0405CE00B9F70895DC
:1005D200E0EAF4E0918590649187E0E5F0E0108232
:1005E200862B808320E030E088ED84BF2093510089
:0205F20008956A
:1005F400A29FB001B39FC001A39F700D811D112460
:0E060400911DB29F700D811D1124911D08954E
:100612008F938091A90486FF06C080E48093A90489
:0A06220081E0809317608F91189516
:10062C00EC010E9497030E949603CE010E9498034E
:06063C00CE010E949403B0
:10064200E0E4F4E08CE0828B838B85818C6085838F
:02065200089509
:100654000E94FA02460F571FC81FD91F08F431968B
:020664000895F7
:10066600E0E0F8E0948195FFFDCF809302080895BD
:10067600E0E0F4E08CE0848B858B868B878B089595
:100686008F9381E08093166080910D068F91189567
:0E069600E0E4F4E088E0858384E08683089544
:0E06A400E0E0F4E08CE083878FEF8487089518
:0C06B200E0E4F9E080818E7F80830895F1
:0C06BE00E0E0F6E0808181608083089518
:0C06CA00E0E0F6E080818E7F80830895E0
:0C06D600E0E0F6E08285816082870895F4
:0A06E2000E94330380E090E00895C9
:0A06EC0080910D0686958170089537
:0A06F60080911006909111060895FE
:0807000080E8809306040895CF
:0807080080E8809305040895C8
:0807100080910D06817008952F
:06071800809117600895B6
:06071E001092176008951F
:040724000C94000031
:040728000E948500A6
:02072C0008952E
:02072E0008952C
:0207300008952A
:100732000300000000000000000000007103000040
:02074200146041
:00000001FF
