:100000000C9457000C9417090C9417090C941709B9
:100010000C9417090C9417090C9417090C941709E0
:100020000C94B7080C9417090C9417090C94170931
:100030000C9417090C9417090C9417090C941709C0
:100040000C9417090C9417090C9417090C941709B0
:100050000C945D070C9417090C9417090C9417095C
:100060000C9417090C9417090C9417090C94170990
:100070000C9417090C9417090C9417090C94170980
:100080000C9417090C9417090C9417090C94170970
:1000900060006002806002603500123C60356037AD
:1000A000806037603900126F6039603E8000809157
:1000B00001108F7C8060806898ED94BF8093011060
:1000C00011241FBECFEFCDBFDFE7DEBFE0E9F0E0D8
:1000D00040E017C0B591A59135912591059107FD97
:1000E0000CC095918591EF01F92FE82F05900D92A5
:1000F000A217B307D9F7FE0104C01D92A217B307D8
:10010000E1F7ED3AF40731F70E949A030C94E20804
:04011000F894FFCF91
:100114000A53504920646174613A20307825782C60
:1001240020307825780A0A00526573756C74733A26
:100134002025750A000A57696E646F77205265732B
:10014400756C743A202575094144432052657375D2
:070154006C743A25750A00E6
:10015C00AEE0B0E0E4EBF0E00C9446084C016B012F
:10016C0019821A828FEF9FEF8B839C831D821E82D4
:10017C004F83588729873A87A12CB12CD6016D90D3
:10018C007C90F301EA0DFB1D808181110FC0D6011B
:10019C00ED93FC938081853209F0D3C13F01BFEF11
:1001AC006B1A7B0AF6016082718219C0853279F371
:1001BC00B401082E000C990B0E94C7054FEFA41A2E
:1001CC00B40ADCCF8C32ACF08D32F9F489819A818F
:1001DC00816089839A833196D601ED93FC93D60185
:1001EC00ED91FC9180818B3269F789819A818460D1
:1001FC00F0CF803221F489819A818860EACF8332F2
:10020C0051F489819A818061E4CF803321F4898112
:10021C009A818260DECFB701C6010E9405078D83EB
:10022C009E8397FF0BC029813A81B1E02B2729834C
:10023C003A839195819591098D839E8389819A81C9
:10024C0080FF03C08D7F89839A83D601ED91FC9149
:10025C00119780818E3249F43196ED93FC93B7015E
:10026C00C6010E9405078B839C83C6010E94CA07A6
:10027C00582ED601ED91FC918081082E000C990B23
:10028C000E94FE08893609F443C084F4833609F4CD
:10029C0002C134F4853209F427C18136E1F030C152
:1002AC008436B1F188360CF4D9C02AC1803709F4F0
:1002BC009AC03CF48E3609F4BCC08F3609F461C088
:1002CC001FC1853709F440C0883709F476C08337DD
:1002DC0009F016C1F3C0652D70E0A701CE010B9695
:1002EC000E940000892B09F426C1D601ED91FC91E6
:1002FC001197CF0101968D939C932081AE01455FA0
:10030C005F4FBE016F5F7F4FC4010E94000010C1A0
:10031C00652D70E0970141E050E0CE010B960E94F4
:10032C00A104892B09F407C1F60180819181019602
:10033C0080839183AE01455F5F4FBE016F5F7F4F3E
:10034C00C4010E942F04F4C0652D70E0970140E0B9
:10035C0050E0CE010B960E94A104892B09F4EBC04E
:10036C00D6018D919C91119701968D939C93AE0122
:10037C00455F5F4FBE016F5F7F4FC4010E94130644
:10038C00D7C0652D70E0970140E050E0CE010B9690
:10039C000E94A104892B09F4CEC0F60180819181C1
:1003AC00019680839183AE01455F5F4FBE016F5F05
:1003BC007F4FC4010E946E05BBC0652D70E0970194
:1003CC0040E050E0CE010B960E94A104892B09F469
:1003DC00B2C0D601ED91FC911197CF0101968D938E
:1003EC009C9320811CC0970140E050E060EF70E0CE
:1003FC00CE010B960E94A104892B09F49CC0F60136
:10040C00808191810196808391838B859C85892B3A
:10041C0029F420E030E04FE250E684C028E7AE013A
:10042C00455F5F4FBE016F5F7F4FC4010E94AC02FE
:10043C007FC0A501400F511F652D70E09701CE01C3
:10044C000B960E940000892B09F475C0D6018D9182
:10045C009C91119701968D939C9373C0652D70E0C0
:10046C00A701CE010B960E940000892B09F463C0F2
:10047C00D601ED91FC911197CF0101968D939C9330
:10048C002081AE01455F5F4FBE016F5F7F4FC4019E
:10049C000E9400004DC0B0E85B124DC0F601808197
:1004AC009181019680839183D701ED91FC911197F5
:1004BC00CF0102968D939C93808120C0B0E85B1293
:1004CC003AC0F60180819181019680839183D70196
:1004DC00ED91FC911197CF0102968D939C934081E5
:1004EC00518120E030E01EC0B0E85B1224C0F60160
:1004FC00208131812F5F3F4F208331838B870DC04B
:10050C0085E28B87D6016D927C9219821A821D82AC
:10051C001E828FEF9FEF8B839C8321E030E0AE0136
:10052C00455F5F4FBE016F5F7F4FC4010E94330771
:10053C008A0D9B1D07C0F6018081918101968083F5
:0C054C009183C5012E96EFE00C948F08FF
:10055800AFE0B0E0E2EBF2E00C9443081C016B0161
:1005680049835A832B83FB01828193818480958000
:1005780000811181A680B78097FD02C00D7F02C05F
:1005880081E090E0E981FA81408051806280738047
:100598009801207133272C833D83740104FF08C020
:1005A800411451046104710419F032E0E31AF108AE
:1005B800F801E870FF27EE83FF8303FF03C0F1E033
:1005C800EF1AF108F6010084F185E02D3197EE87E6
:1005D800FF87EA0DFB1D10829C012E193F09288711
:1005E8003987C801827099278A879B87EB818E2F6C
:1005F800EE0F990B9C01215431092C873D872E85DC
:100608003F852230310530F48C819D81892B09F09A
:1006180042C05CC0411451046104710461F18E85CB
:100628009F8501978E879F87C2018F7099278A308F
:10063800910514F4C09602C0895A9F4FEC85FD8538
:100648007A9748F49C012062215631092A313105F4
:1006580010F40E94ED08EE85FF85EA0DFB1D8083EE
:10066800F1E0EF1AF10884E0769467945794479480
:100678008A95D1F7C4CF888599858E0D9F1D181648
:1006880019066CF21E141F040CF0BECFEA85FB8518
:10069800EF2B29F6B9CFE981FA8180819181A28176
:1006A800B381892B8A2B8B2B89F0EE85FF85EA0D88
:1006B800FB1D31972B8120838E859F8502978E871E
:1006C8009F87FC01EA0DFB1D80E38083EE81FF819B
:1006D800EF2B59F02E853F85215031092E873F8712
:1006E800F901EA0DFB1D80E28083F6014085518502
:1006F800415051092E853F85421B530BB9016A0DA4
:100708007B1D9401C1010E9496069C01F101808124
:10071800918190FF06C0F601828193818217930729
:0C0728000CF4C9012F96E2E10C948C083F
:10073400C0E00F2EF5E3EF2EF0E6FF2EF02D0F2E86
:10074400F4E18F2EF1E89F2EF02D0F2EFCE2AF2E58
:10075400F1E8BF2EF02D0F2EF9E3CF2EF1E8DF2EB6
:10076400F02DC230B9F128F4CC2351F0C13049F155
:10077400F8CFC43009F43FC0A8F1C530C9F0F1CFB7
:100784000E94CF0600E020E040E060E081E00E94AB
:10079400090823E040E060E080E00E94EA070E944C
:1007A400A40861E084E00E94D6087894C5E0D9CF1B
:1007B40088950E940B098130A1F60E940E09C1E0C0
:1007C400D0CF00E020E040E06CE080E00E948407AD
:1007D400C2E0C7CF0E9411098823E1F30E941409E3
:1007E400C3E0BFCF00E020E040E060E081E00E9491
:1007F4000908C4E0B6CFF70180811F928F938181ED
:100804001F928F939F928F920E945C08F701C1817F
:10081400D0E0DC2FCC278081C82BDF93CF93BF920D
:10082400AF920E945C08CE019F709F938F938D2F8F
:10083400881F8827881F1F928F93DF92CF920E9470
:100844005C08E9E9F1E03197F1F700C08DB79EB794
:0A08540040968DBF9EBFC5E084CF23
:10085E00A2E0B0E0E5E3F4E00C9443083C016B0148
:10086E00FB0122813381A480B580808191818983AF
:10087E009A8386809780FA0120803180428053804F
:10088E00B201A10157FE07C044275527BA014219EC
:10089E0053096409750937FD03C08D7F89839A83D7
:1008AE00950157FC05C0898182FD02C083FF02C0FD
:1008BE0021503109CE0101967C010AE010E0C601FB
:1008CE000E94090557FC03C0298122FF0AC0019727
:1008DE00F401E80FF91F57FC02C02BE209C02DE20C
:1008EE0007C023FF06C00197F401E80FF91F20E2AD
:1008FE00208309811A81F6014085518541505109A5
:10090E00481B590BB401680F791F9501C3010E9452
:10091E0096069C01F3018081918190FF06C0F6013D
:10092E0082819381821793070CF4C9012296E2E12A
:04093E000C948C0881
:10094200CF93DF93DC01F90168387105F1F05CF4B3
:100952006138710561F164387105A1F16038710582
:1009620009F051C02FC0603C710509F441C0603FDD
:100972007105F1F1603A710509F045C0C081D1817C
:10098200CE0102968083918325C0C081D181CE01A0
:10099200029680839183452B39F04881042E000C06
:1009A200550B660B770B1CC0488150E029C0C081F3
:1009B200D181CE01049680839183488159816A81D5
:1009C2007B810EC0C081D181CE010296808391834A
:1009D200452BA1F048815981052E000C660B770B3F
:1009E2004D935D936D937C93139781E090E00DC0DE
:1009F200C081D181CE010296808391834881598141
:100A020060E070E0EDCF80E090E0DF91CF9108955B
:100A1200A0E0B0E0EFE0F5E00C944508DC0128012D
:100A22001696AD90BC901797F7018081918112962E
:100A3200ED91FC9113971896CD91DC91199721971E
:100A4200F7FF02C0E1E0F0E0CA0DDB1D1882690188
:100A5200A1E0B0E08F01021B130B4C01F2E08F22E8
:100A62009924052C000C66087708CE018A199B0987
:100A7200CA15DB0519F1411551056105710589F0AA
:100A8200CB01BA01A30192010E94A807CA01A62FB5
:100A9200B72F605D6A9341E0C41AD108A901BC0175
:100AA200E4CF98012C0D3D1D121613064CF31C14B5
:100AB2001D0434F48114910419F702C080E090E01F
:100AC200AB2B31F4F701208131812F7E20833183DA
:0A0AD200CDB7DEB7E0E10C948E080A
:100ADC00A2E0B0E0E4E7F5E00C9447084C016B01B0
:100AEC00FB012281338164807580808191818983AF
:100AFC009A83A680B78037FD03C08D7F89839A8344
:100B0C00FA014081518162817381CE0101967C0191
:100B1C0008E010E09301C6010E940905298124FF19
:100B2C0006C00197F501E80FF91F20E32083298106
:100B3C0023FF06C00197F501E80FF91F20E220837F
:100B4C0009811A81F6014085518541505109481B94
:100B5C00590BB501680F791F9301C4010E949606C9
:100B6C009C01F4018081918190FF06C0F601828185
:100B7C009381821793070CF4C9012296EEE00C9432
:020B8C009008CF
:100B8E000F931F93CF93DF93DB01109719F48FEF21
:100B9E009FEF3DC02D913C91119730FF25C01696C9
:100BAE004D915C91179714962D913C911597421784
:100BBE00530778F41296ED91FC9113978083129659
:100BCE002D913C9113972F5F3F4F12962D933C938F
:100BDE00139716962D913C9117972F5F3F4F1696B0
:100BEE002D933C93179713C01C96ED91FC911D9776
:100BFE00309769F2EB01092F182F0995892B39F6D9
:100C0E008E819F8101968E839F83812F902FDF91FE
:080C1E00CF911F910F91089581
:100C2600A2E0B0E0E9E1F6E00C9447085C016B0154
:100C3600FB01228133818480958080819181898323
:100C46009A836680778037FD03C08D7F89839A8378
:100C5600FA014081518162817381CE0101967C0146
:100C66000AE010E09401C6010E94090509811A8173
:100C7600F6014085518541505109481B590BB30176
:100C8600680F791F9401C5010E9496069C01F50123
:100C96008081918190FF06C0F6018281938182173F
:0E0CA60093070CF4C9012296EEE00C9490081E
:100CB400A2E8B0E0E0E6F6E00C9449085C014A01E1
:100CC400CF57DF4F68837983C158D040C12CD12CD2
:100CD400CF57DF4FE881F981C158D0408081882304
:100CE400E9F07401860120E830E0AE014F5F5F4F08
:100CF400BE016F577F4FC5010E94AE008C0D9D1D34
:100D04008C159D054CF48FE490E0809300609093E3
:100D140001608FEF9FEF03C06C01DACFC601CE579D
:080D2400DF4FECE00C94920893
:100D2C00A0E0B0E0ECE9F6E00C9449086C015B0142
:100D3C007A01E901480181E08822992400FD03C071
:100D4C004217530750F0A701B501C6010E942608AF
:100D5C00EC16FD0610F0C70117C08E010E191F0905
:100D6C000115110541F0B60180E290E00E94C70523
:100D7C0001501109F5CF8114910429F4A701B50193
:100D8C00C6010E942608CE01CDB7DEB7ECE00C946C
:020D9C009208BB
:100D9E00CF93DF9320E434E08FEFD90111968C933B
:100DAE001197C0E6D4E0898360EA74E090E2FB011B
:100DBE009183E0E0F4E0918390ED92839CE0938741
:100DCE001B969C939B87DB011B969C934FE044875D
:100DDE00D9011C968C939FEE9C87DB011C968C93FD
:100DEE004583D90115968C939D83DB0115968C93C3
:0C0DFE0087898B60878BDF91CF9108956F
:100E0A00DC01ED91FC91119780818A3221F080E01A
:100E1A0090E03AE00EC03196ED93FC93DB01ED9140
:100E2A00FC911197CF0102968D939C9380819181B9
:100E3A000895ED91FC911197208120532A3068F48E
:100E4A00389FA001399F500D1124CA01820F911DAC
:0C0E5A003196ED93FC931197ECCF0895B6
:100E6600A0E0B0E0E9E3F7E00C944B087C01FB015D
:100E7600EA01C901A280B380C480D58000811181B6
:100E8600209711F4C8E2D0E6009719F4CE010E942B
:100E9600C808B7FC04C0A816B90608F4C50196012F
:100EA600AC01BE01C7010E949606CDB7DEB7EAE0E7
:040EB6000C949408FC
:100EBA001F921FB61F9211248F93EF93FF93809175
:100ECA0043098823ACF4E0913D6081E08E0F809362
:100EDA003D6080914409F0E0EB5CFF49808380919A
:100EEA003D60823029F410923D6081E080933C603D
:0E0EFA00FF91EF918F911F901FBE1F901895D2
:100F08000F9390E8099FF0011124E82B98ED94BF06
:100F1800E0936000413039F4220F216030E094BF43
:100F28002093610004C098ED94BF40936100811143
:100F380004C088ED84BF60936800013019F480E82C
:080F4800809301040F9108954C
:100F5000A1E21A2EAA1BBB1BFD010DC0AA1FBB1FBD
:100F6000EE1FFF1FA217B307E407F50720F0A21B2F
:100F7000B30BE40BF50B661F771F881F991F1A949C
:100F800069F760957095809590959B01AC01BD01C6
:040F9000CF010895F0
:100F9400CF93DF93EC0190E0E92FF0E0EE0FFF1F19
:100FA400EE5FFF498081811102C081810EC0A8815A
:100FB400B9812C91821305C091811196A883B983BC
:100FC40001C09F5F9B3040F3892FDF91CF9108953B
:100FD400E0E0F8E09781292B422B642B862B878352
:100FE4008DE690E08087918783E08093E205868197
:100FF40080648683E0913760F091386088E190E600
:0E1004008083918384EF91E00197F1F70895C6
:101012000F9398ED30E8039FF00111248E2B94BFBB
:1010220080936000642B462F50E094BF4093610090
:1010320027952227279594BF20937800013019F431
:0A10420080E8809301040F910895E7
:10104C00A0E0B0E0ECE2F8E00C944D086C01EB0190
:10105C008A017B01E40EF51ECE15DF0541F0899166
:10106C00B601082E000C990B0E94C705F5CFC801DC
:0A107C00CDB7DEB7E8E00C9496084B
:101086002F923F924F925F926F927F928F929F9292
:10109600AF92BF92CF92DF92EF92FF920F931F9380
:1010A600CF93DF93CDB7DEB7CA1BDB0BCDBFDEBF59
:0210B60009949B
:1010B800A0E0B0E0E2E6F8E00C945308AE014B5F24
:1010C8005F4FFA0161917191AF01E0913760F09142
:1010D8003860808191810E947408E2E00C949C0839
:1010E800A2E0B0E0EAE7F8E00C9451088C014983EB
:1010F8005A83AE014F5F5F4F0E945A06F801208164
:1011080024FF02C08FEF9FEF2296E4E00C949A0828
:101118002A88398848885F846E847D848C849B847F
:10112800AA84B984C884DF80EE80FD800C811B818D
:10113800AA81B981CE0FD11DCDBFDEBFED010895C3
:101148001092E505E0E4F9E080818F7D808380E4FA
:101158008183128281E08283828180688283808198
:0611680081608083089500
:10116E008F938FB78F9380910904882334F480E88E
:10117E008093090481E080933B608F918FBF8F91A4
:02118E001895B2
:10119000FC01AF014F5F5F4F2081222311F0FA0164
:0C11A000F8CF9F01281B390BC9010895EE
:1011AC00E0E5F0E01082862B808320E030E088EDD3
:0811BC0084BF20935100089547
:1011C400EC010E941C090E941B09CE010E941D090A
:0611D400CE010E94190982
:1011DA009C01215631092A31310510F48F7599275E
:0211EA00089566
:1011EC00E0E0F8E0948195FFFDCF8093020808952C
:1011FC009C01215431092A31310508F4806208958B
:0A120C000E94F60880E090E00895CB
:0612160080913B60089589
:06121C0010923B600895F2
:0612220080913C6008957C
:0612280010923C600895E5
:04122E000C9400001C
:041232000E9488008E
:02123600089519
:02123800089517
:02123A00089515
:10123C0068076C094C836A9074A07AC00080688837
:06124C0000846C820081A9
:10125200030000000000000000000000060900007A
:07126200286E756C6C290079
:06126900286E696C2900EB
:02126F003960E4
:00000001FF
