:100000000C9451000C9499070C9499070C9499073F
:100010000C9499070C9499070C9499070C949907E0
:100020000C9499070C9499070C9499070C949907D0
:100030000C9499070C9499070C9499070C949907C0
:100040000C9499070C9499070C9499070C949907B0
:100050000C9499070C9499070C9499070C949907A0
:100060000C9499070C9499070C9499070C94990790
:100070000C9499070C9499070C9499070C94990780
:100080000C9499070C9499070C9499070C94990770
:10009000600060028060026048000F406048604A73
:1000A000800011241FBECFEFCDBFDFE7DEBFE0E948
:1000B000F0E040E017C0B591A591359125910591EB
:1000C00007FD0CC095918591EF01F92FE82F059060
:1000D0000D92A217B307D9F7FE0104C01D92A21713
:1000E000B307E1F7E13AF40731F70E94F4060C9404
:0600F0007007F894FFCF39
:1000F600AEE0B0E0E1E8F0E00C94DE064C016B0106
:1001060019821A828FEF9FEF8B839C831D821E823A
:100116004F83588729873A87A12CB12CD6016D9039
:100126007C90F301EA0DFB1D808181110FC0D60181
:10013600ED93FC938081853209F0D3C13F01BFEF77
:100146006B1A7B0AF6016082718219C0853279F3D7
:10015600B401082E000C990B0E94FF044FEFA41A5D
:10016600B40ADCCF8C32ACF08D32F9F489819A81F5
:10017600816089839A833196D601ED93FC93D601EB
:10018600ED91FC9180818B3269F789819A81846037
:10019600F0CF803221F489819A818860EACF833258
:1001A60051F489819A818061E4CF803321F4898179
:1001B6009A818260DECFB701C6010E9404068D8354
:1001C6009E8397FF0BC029813A81B1E02B272983B3
:1001D6003A839195819591098D839E8389819A8130
:1001E60080FF03C08D7F89839A83D601ED91FC91B0
:1001F600119780818E3249F43196ED93FC93B701C5
:10020600C6010E9404068B839C83C6010E949E063B
:10021600582ED601ED91FC918081082E000C990B89
:100226000E948C07893609F443C084F4833609F4A6
:1002360002C134F4853209F427C18136E1F030C1B8
:100246008436B1F188360CF4D9C02AC1803709F456
:100256009AC03CF48E3609F4BCC08F3609F461C0EE
:100266001FC1853709F440C0883709F476C0833743
:1002760009F016C1F3C0652D70E0A701CE010B96FB
:100286000E940000892B09F426C1D601ED91FC914C
:100296001197CF0101968D939C932081AE01455F06
:1002A6005F4FBE016F5F7F4FC4010E94000010C107
:1002B600652D70E0970141E050E0CE010B960E945B
:1002C600D903892B09F407C1F60180819181019632
:1002D60080839183AE01455F5F4FBE016F5F7F4FA5
:1002E600C4010E946703F4C0652D70E0970140E0E9
:1002F60050E0CE010B960E94D903892B09F4EBC07E
:10030600D6018D919C91119701968D939C93AE0188
:10031600455F5F4FBE016F5F7F4FC4010E94480576
:10032600D7C0652D70E0970140E050E0CE010B96F6
:100336000E94D903892B09F4CEC0F60180819181F0
:10034600019680839183AE01455F5F4FBE016F5F6B
:100356007F4FC4010E94A604BBC0652D70E09701C3
:1003660040E050E0CE010B960E94D903892B09F498
:10037600B2C0D601ED91FC911197CF0101968D93F4
:100386009C9320811CC0970140E050E060EF70E034
:10039600CE010B960E94D903892B09F49CC0F60165
:1003A600808191810196808391838B859C85892BA1
:1003B60029F420E030E040E450E684C028E7AE01AE
:1003C600455F5F4FBE016F5F7F4FC4010E94790298
:1003D6007FC0A501400F511F652D70E09701CE012A
:1003E6000B960E940000892B09F475C0D6018D91E9
:1003F6009C91119701968D939C9373C0652D70E027
:10040600A701CE010B960E940000892B09F463C058
:10041600D601ED91FC911197CF0101968D939C9396
:100426002081AE01455F5F4FBE016F5F7F4FC40104
:100436000E9400004DC0B0E85B124DC0F6018081FD
:100446009181019680839183D701ED91FC9111975B
:10045600CF0102968D939C93808120C0B0E85B12F9
:100466003AC0F60180819181019680839183D701FC
:10047600ED91FC911197CF0102968D939C9340814B
:10048600518120E030E01EC0B0E85B1224C0F601C6
:10049600208131812F5F3F4F208331838B870DC0B1
:1004A60085E28B87D6016D927C9219821A821D8213
:1004B6001E828FEF9FEF8B839C8321E030E0AE019D
:1004C600455F5F4FBE016F5F7F4FC4010E943206DA
:1004D6008A0D9B1D07C0F60180819181019680835C
:0C04E6009183C5012E96EFE00C943F07B7
:1004F200AFE0B0E0EFE7F2E00C94DB061C016B0129
:1005020049835A832B83FB01828193818480958066
:1005120000811181A680B78097FD02C00D7F02C0C5
:1005220081E090E0E981FA814080518062807380AD
:100532009801207133272C833D83740104FF08C086
:10054200411451046104710419F032E0E31AF10814
:10055200F801E870FF27EE83FF8303FF03C0F1E099
:10056200EF1AF108F6010084F185E02D3197EE874C
:10057200FF87EA0DFB1D10829C012E193F09288777
:100582003987C801827099278A879B87EB818E2FD2
:10059200EE0F990B9C01215431092C873D872E8542
:1005A2003F852230310530F48C819D81892B09F001
:1005B20042C05CC0411451046104710461F18E8532
:1005C2009F8501978E879F87C2018F7099278A30F6
:1005D200910514F4C09602C0895A9F4FEC85FD859F
:1005E2007A9748F49C012062215631092A3131055B
:1005F20010F40E947B07EE85FF85EA0DFB1D8083C8
:10060200F1E0EF1AF10884E07694679457944794E6
:100612008A95D1F7C4CF888599858E0D9F1D1816AE
:1006220019066CF21E141F040CF0BECFEA85FB857E
:10063200EF2B29F6B9CFE981FA8180819181A281DC
:10064200B381892B8A2B8B2B89F0EE85FF85EA0DEE
:10065200FB1D31972B8120838E859F8502978E8784
:100662009F87FC01EA0DFB1D80E38083EE81FF8101
:10067200EF2B59F02E853F85215031092E873F8778
:10068200F901EA0DFB1D80E28083F6014085518568
:10069200415051092E853F85421B530BB9016A0D0A
:1006A2007B1D9401C1010E94CB059C01F101808157
:1006B200918190FF06C0F601828193818217930790
:0C06C2000CF4C9012F96E2E10C943C07F7
:1006CE00A2E0B0E0EDE6F3E00C94DB063C016B013A
:1006DE00FB0122813381A480B58080819181898341
:1006EE009A8386809780FA012080318042805380E1
:1006FE00B201A10157FE07C044275527BA0142197E
:10070E0053096409750937FD03C08D7F89839A8368
:10071E00950157FC05C0898182FD02C083FF02C08E
:10072E0021503109CE0101967C010AE010E0C6018C
:10073E000E94410457FC03C0298122FF0AC0019781
:10074E00F401E80FF91F57FC02C02BE209C02DE29D
:10075E0007C023FF06C00197F401E80FF91F20E23E
:10076E00208309811A81F601408551854150510936
:10077E00481B590BB401680F791F9501C3010E94E4
:10078E00CB059C01F3018081918190FF06C0F6019B
:10079E0082819381821793070CF4C9012296E2E1BC
:0407AE000C943C0764
:1007B200CF93DF93DC01F90168387105F1F05CF445
:1007C2006138710561F164387105A1F16038710514
:1007D20009F051C02FC0603C710509F441C0603F6F
:1007E2007105F1F1603A710509F045C0C081D1810E
:1007F200CE0102968083918325C0C081D181CE0132
:10080200029680839183452B39F04881042E000C97
:10081200550B660B770B1CC0488150E029C0C08184
:10082200D181CE01049680839183488159816A8166
:100832007B810EC0C081D181CE01029680839183DB
:10084200452BA1F048815981052E000C660B770BD0
:100852004D935D936D937C93139781E090E00DC06F
:10086200C081D181CE0102968083918348815981D2
:1008720060E070E0EDCF80E090E0DF91CF910895ED
:10088200A0E0B0E0E7E4F4E00C94DD06DC0128012E
:100892001696AD90BC901797F701808191811296C0
:1008A200ED91FC9113971896CD91DC9119972197B0
:1008B200F7FF02C0E1E0F0E0CA0DDB1D188269011A
:1008C200A1E0B0E08F01021B130B4C01F2E08F227A
:1008D2009924052C000C66087708CE018A199B0919
:1008E200CA15DB0519F1411551056105710589F03C
:1008F200CB01BA01A30192010E945C06CA01A62F94
:10090200B72F605D6A9341E0C41AD108A901BC0106
:10091200E4CF98012C0D3D1D121613064CF31C1446
:100922001D0434F48114910419F702C080E090E0B0
:10093200AB2B31F4F701208131812F7E208331836B
:0A094200CDB7DEB7E0E10C943E07EC
:10094C00A2E0B0E0ECEAF4E00C94DF064C016B01A1
:10095C00FB01228133816480758080819181898340
:10096C009A83A680B78037FD03C08D7F89839A83D5
:10097C00FA014081518162817381CE0101967C0123
:10098C0008E010E09301C6010E944104298124FF74
:10099C0006C00197F501E80FF91F20E32083298198
:1009AC0023FF06C00197F501E80FF91F20E2208311
:1009BC0009811A81F6014085518541505109481B26
:1009CC00590BB501680F791F9301C4010E94CB0527
:1009DC009C01F4018081918190FF06C0F601828117
:1009EC009381821793070CF4C9012296EEE00C94C4
:0209FC004007B2
:1009FE000F931F93CF93DF93DB012D913C911197B2
:100A0E0030FF25C016964D915C91179714962D9137
:100A1E003C9115974217530778F41296ED91FC917D
:100A2E001397808312962D913C9113972F5F3F4F12
:100A3E0012962D933C93139716962D913C911797E2
:100A4E002F5F3F4F16962D933C93179715C01C960C
:100A5E00ED91FC911D97309719F48FEF9FEF0CC01D
:100A6E008B01EC010995892BC1F7F80186819781DD
:100A7E00019686839783CE01DF91CF911F910F91BF
:020A8E000895C9
:100A9000A2E0B0E0EEE4F5E00C94DF065C016B014F
:100AA000FB012281338184809580808191818983BB
:100AB0009A836680778037FD03C08D7F89839A8310
:100AC000FA014081518162817381CE0101967C01DE
:100AD0000AE010E09401C6010E94410409811A81D4
:100AE000F6014085518541505109481B590BB3010E
:100AF000680F791F9401C5010E94CB059C01F50187
:100B00008081918190FF06C0F601828193818217D6
:0E0B100093070CF4C9012296EEE00C94400706
:100B1E00A2E8B0E0E5E9F5E00C94E1065C014A01DB
:100B2E00CF57DF4F68837983C158D040C12CD12C69
:100B3E00CF57DF4FE881F981C158D040808188239B
:100B4E00E9F07401860120E830E0AE014F5F5F4F9F
:100B5E00BE016F577F4FC5010E947B008C0D9D1DFE
:100B6E008C159D054CF48FE490E08093006090937B
:100B7E0001608FEF9FEF03C06C01DACFC601CE5735
:080B8E00DF4FECE00C9442077C
:100B9600A0E0B0E0E1EDF5E00C94E1066C015B014C
:100BA6007A01E901480181E08822992400FD03C009
:100BB6004217530750F0A701B501C6010E94BE06B1
:100BC600EC16FD0610F0C70117C08E010E191F099D
:100BD6000115110541F0B60180E290E00E94FF0484
:100BE60001501109F5CF8114910429F4A701B5012B
:100BF600C6010E94BE06CE01CDB7DEB7ECE00C946E
:020C06004207A3
:100C0800DC01ED91FC91119780818A3221F080E01E
:100C180090E03AE00EC03196ED93FC93DB01ED9144
:100C2800FC911197CF0102968D939C9380819181BD
:100C38000895ED91FC911197208120532A3068F492
:100C4800389FA001399F500D1124CA01820F911DB0
:0C0C58003196ED93FC931197ECCF0895BA
:100C6400A0E0B0E0E8E3F6E00C94E3067C01FB01CD
:100C7400EA01C901A280B380C480D58000811181BA
:100C8400209711F4C9E3D0E6009719F4CE010E942D
:100C94006207B7FC04C0A816B90608F4C50196019A
:100CA400AC01BE01C7010E94CB05CDB7DEB7EAE0B7
:040CB4000C94440751
:100CB800A1E21A2EAA1BBB1BFD010DC0AA1FBB1F58
:100CC800EE1FFF1FA217B307E407F50720F0A21BCA
:100CD800B30BE40BF50B661F771F881F991F1A9437
:100CE80069F760957095809590959B01AC01BD0161
:040CF800CF0108958B
:100CFC00E0E0F8E08781836087838DE690E0808771
:100D0C009187A0E6B4E011968C91119780611196B1
:100D1C008C9383E08093E205868180648683E091E6
:100D2C004660F091476089E290E680839183089554
:100D3C00CF93DF93EC0190E0E92FF0E0EE0FFF1F73
:100D4C00EE5FFF498081811102C081810EC0A881B4
:100D5C00B9812C91821305C091811196A883B98316
:100D6C0001C09F5F9B3040F3892FDF91CF91089595
:100D7C00A0E0B0E0E4ECF6E00C94E5066C01EB01CD
:100D8C008A017B01E40EF51ECE15DF0541F0899139
:100D9C00B601082E000C990B0E94FF04F5CFC80178
:0A0DAC00CDB7DEB7E8E00C9446076F
:100DB6002F923F924F925F926F927F928F929F9265
:100DC600AF92BF92CF92DF92EF92FF920F931F9353
:100DD600CF93DF93CDB7DEB7CA1BDB0BCDBFDEBF2C
:020DE60009946E
:100DE80080E8809301040E9454070E947E0680E0F8
:100DF800C8E1D0E611E0180F1F928F93DF93CF93CD
:100E08000E940C070F900F900F900F90812FF2CF38
:100E1800A0E0B0E0E2E1F7E00C94EB06AE014B5F36
:100E28005F4FFA0161917191AF01E0914660F091D5
:100E38004760808191810E942407E2E00C944C076E
:100E4800A2E0B0E0EAE2F7E00C94E9068C014983FD
:100E58005A83AE014F5F5F4F0E948F05F8012081D2
:100E680024FF02C08FEF9FEF2296E4E00C944A071C
:100E78002A88398848885F846E847D848C849B8422
:100E8800AA84B984C884DF80EE80FD800C811B8130
:100E9800AA81B981CE0FD11DCDBFDEBFED01089566
:100EA80028ED81E890E024BF809360008091610084
:0C0EB80090E08E7F24BF809361000895BD
:100EC400FC01AF014F5F5F4F2081222311F0FA0133
:0C0ED400F8CF9F01281B390BC9010895BD
:100EE000EC010E949E070E949D07CE010E949F0771
:060EF000CE010E949B07E9
:100EF6009C01215631092A31310510F48F75992745
:020F060008954C
:100F0800E0E0F8E0948195FFFDCF80930208089512
:100F18009C01215431092A31310508F48062089571
:0A0F28000E94840780E090E0089525
:040F32000C9400001B
:040F36000E9479009C
:020F3A00089518
:020F3C00089516
:020F3E00089514
:100F400068076C094C836A9074A07AC00080688836
:060F500000846C820081A8
:100F560048656C6C6F20576F726C643A2025640A82
:010F6600008A
:100F670003000000000000000000000094070000DC
:070F7700286E756C6C290067
:060F7E00286E696C2900D9
:020F84004860C3
:00000001FF
